:020000040800F2
:1000000070060020810100083F0200083D02000840
:1000100000000000000000000000000000000000E0
:100020000000000000000000000000004302000883
:100030000000000000000000410200084502000826
:100040009301000893010008930100089301000840
:100050009301000893010008930100089301000830
:100060009301000893010008930100089301000820
:100070009301000893010008930100085102000851
:100080009301000893010008930100089301000800
:1000900093010008930100089301000893010008F0
:1000A00093010008930100089301000893010008E0
:1000B00093010008930100089301000893010008D0
:1000C00000F002F800F04CF812A030C808382418EC
:1000D0002D18AC4201D100F043F80FCCA246AB463C
:1000E0000CA730CF2D1B083F3F197C427F1E544484
:1000F0002D090426F441641EAC4201D300F030F80F
:100100000126334200D0FB1A3343984754465D46DC
:10011000DFE700000C0200002C020000103A02D3BE
:1001200078C878C1FAD8520701D330C830C101D598
:1001300004680C6070470000704700000023002432
:1001400000250026103A01D378C1FBD8520700D30E
:1001500030C100D50B6070471FB51FBD10B510BD75
:1001600000F02DF81146FFF7F7FF00F085F800F0DA
:1001700045F803B4FFF7F2FF03BC00F04BF80000B2
:100180000748804707480047FEE7FEE7FEE7FEE72F
:10019000FEE7FEE704480549054A064B70470000A4
:1001A0004D020008C1000008700000207006002009
:1001B000700200207002002070477047704775463B
:1001C00000F024F8AE46050069465346C008C0005A
:1001D000854618B020B5FFF7DDFF60BCB6460026A7
:1001E0000027C0C5C0C5C0C5C0C5C0C5C0C5C0C545
:1001F000C0C5403D490849008D46704710B50446CA
:10020000C046C0462046FFF7B4FF10BD0048704707
:100210000800002001491820ABBEFEE726000200BE
:10022000704700000348007803490A681018086006
:100230007047C0460000002068000020FEE7FEE78F
:100240007047704780B5FFF7EDFF80BD7047000035
:1002500001200102064A13684B40136041021368F3
:100260004B40136003490A6882430A607047C046E6
:1002700014080048100000400120C20424490B6803
:1002800013430B600303234A14681C431460830365
:1002900014681C431460030414681C431460830432
:1002A00014681C4314605368536053685360536868
:1002B0005360536853609368936093689360936846
:1002C000936093689360D368D360D368D360D36836
:1002D000D360D368D3605369536153695361030298
:1002E00054691C435461536953618A6802438A60AC
:1002F0008107094A8A62FA22CA62CA680243CA604E
:100300000A6802430A60C00304490860FEE7C04669
:1003100014100240000800483F1F000000E100E008
:100320004003000800000020080000001C01000835
:100330004803000808000020680600003C0100088F
:080340000100000004000000B0
:04000005080000C12E
:00000001FF
