:020000040800F2
:1000000070060020810100083F0200083D02000840
:1000100000000000000000000000000000000000E0
:100020000000000000000000000000004302000883
:100030000000000000000000410200084502000826
:100040009301000893010008930100089301000840
:100050009301000893010008930100089301000830
:100060009301000893010008930100089301000820
:100070009301000893010008930100085102000851
:100080009301000893010008930100089301000800
:1000900093010008930100089301000893010008F0
:1000A00093010008930100089301000893010008E0
:1000B00093010008930100089301000893010008D0
:1000C00000F002F800F04CF812A030C808382418EC
:1000D0002D18AC4201D100F043F80FCCA246AB463C
:1000E0000CA730CF2D1B083F3F197C427F1E544484
:1000F0002D090426F441641EAC4201D300F030F80F
:100100000126334200D0FB1A3343984754465D46DC
:10011000DFE700006002000080020000103A02D316
:1001200078C878C1FAD8520701D330C830C101D598
:1001300004680C6070470000704700000023002432
:1001400000250026103A01D378C1FBD8520700D30E
:1001500030C100D50B6070471FB51FBD10B510BD75
:1001600000F02DF81146FFF7F7FF00F085F800F0DA
:1001700045F803B4FFF7F2FF03BC00F04BF80000B2
:100180000748804707480047FEE7FEE7FEE7FEE72F
:10019000FEE7FEE704480549054A064B70470000A4
:1001A0004D020008C1000008700000207006002009
:1001B000700200207002002070477047704775463B
:1001C00000F024F8AE46050069465346C008C0005A
:1001D000854618B020B5FFF7DDFF60BCB6460026A7
:1001E0000027C0C5C0C5C0C5C0C5C0C5C0C5C0C545
:1001F000C0C5403D490849008D46704710B50446CA
:10020000C046C0462046FFF7B4FF10BD0048704707
:100210000800002001491820ABBEFEE726000200BE
:10022000704700000348007803490A681018086006
:100230007047C0460000002068000020FEE7FEE78F
:100240007047704780B5FFF7EDFF80BD7047000035
:1002500001200102064A13684B40136041021368F3
:100260004B40136003490A6882430A607047C046E6
:1002700014080048100000400120C104384A134609
:10028000083B1C680C431C60030436490C681C4383
:100290000C6083040C681C430C604B684B604B681B
:1002A0004B608B688B608B688B60CB68CB60CB6856
:1002B000CB6003024C691C434C614C694C6114686F
:1002C000044314608407284DA562FA25E562E568B9
:1002D0000543E560256805432560C403234D2C6074
:1002E00014680225254315608F33214A13611923B1
:1002F000536113460C3B1C6804431C6013680324C1
:10030000A3431360230215689D431560136870258D
:100310001D431560630314681C431460C302146812
:100320001C431460136808241C431460936803433F
:100330009360936810241C4394600523D361136277
:100340000F2424030D68A5435B03EB180B600B6AB5
:100350000B620B6A0B62183A116801431160FEE7E9
:100360001C100240000800483F1F000000E100E0B0
:100370001804004098030008000000200800000056
:100380001C010008A0030008080000206806000007
:100390003C01000800000000010000000400000013
:04000005080000C12E
:00000001FF
