:020000040800F2
:1000000078060020810100085B09000859090008F2
:1000100000000000000000000000000000000000E0
:100020000000000000000000000000005F09000860
:1000300000000000000000005D09000861090008E0
:100040009301000893010008930100089301000840
:100050009301000893010008930100089301000830
:100060009301000893010008930100089301000820
:100070009301000893010008930100089301000810
:100080009301000893010008930100089301000800
:1000900093010008930100089301000893010008F0
:1000A00093010008930100089301000893010008E0
:1000B00093010008930100089301000893010008D0
:1000C00000F002F800F04CF812A030C808382418EC
:1000D0002D18AC4201D100F043F80FCCA246AB463C
:1000E0000CA730CF2D1B083F3F197C427F1E544484
:1000F0002D090426F441641EAC4201D300F030F80F
:100100000126334200D0FB1A3343984754465D46DC
:10011000DFE70000180F0000380F0000103A02D38C
:1001200078C878C1FAD8520701D330C830C101D598
:1001300004680C6070470000704700000023002432
:1001400000250026103A01D378C1FBD8520700D30E
:1001500030C100D50B6070471FB51FBD10B510BD75
:1001600000F04DF81146FFF7F7FF00F0FFFB00F03D
:1001700065F803B4FFF7F2FF03BC00F06BF8000072
:100180000748804707480047FEE7FEE7FEE7FEE72F
:10019000FEE7FEE704480549054A064B70470000A4
:1001A00069090008C10000087800002078060020D6
:1001B000780200207802002001E004C0091F042911
:1001C000FBD28B0701D50280801CC90700D00270CA
:1001D000704700290BD0C30702D00270401C491E93
:1001E000022904D3830702D50280801C891EE3E71D
:1001F0000022EEE70022DFE7704770477047754640
:1002000000F024F8AE46050069465346C008C00019
:10021000854618B020B5FFF7BDFF60BCB646002686
:100220000027C0C5C0C5C0C5C0C5C0C5C0C5C0C504
:10023000C0C5403D490849008D46704710B5044689
:10024000C046C0462046FFF794FF10BD00487047E7
:100250001000002001491820ABBEFEE72600020076
:1002600070470000054800687047C0461348007892
:1002700002490A68101808607047C04670000020E4
:1002800070B504467D20C0000C4E317800F096FD1C
:1002900001467948006800F091FD00F043FB01251C
:1002A000032C08D8002806D10025E84321462A4619
:1002B00000F006F87460284670BDC04600000020BB
:1002C000002805D40322034693430A4A9A1803E000
:1002D0000C220240064BD2188007C00E8901C9B219
:1002E0008140FF23834010689843084310607047A3
:1002F00014ED00E000E400E0F0B581B0002846D045
:100300000446534A1368012003408B4208D2136805
:100310000126B3430B431360126832408A4237D13F
:10032000009121688A074B4B10D54A0706D5072252
:1003300012021B681343474A1360464B1A68F023A6
:100340009A43A3681343434A1360424BC90722D11F
:100350003F49086801263040009A904205D9086854
:10036000B04308600868C00712D12078400706D55E
:100370000720000219688143E068084318601A6882
:100380001007810F3548022912D2044650E0012699
:10039000304601B0F0BD616803290DD01A1F022953
:1003A0000FD0012912D1126892030646F0D511E050
:1003B000032926D12A4C3BE01A6B92030646E7D567
:1003C00008E0126892010646E2D503E0126892073F
:1003D0000646DDD518680326B04308431860FFF7CA
:1003E00041FF07461C4D1B4B18680C2101406068FB
:1003F00080008142ACD0FFF735FFC01BA842F2D984
:10040000C6E70321CB031349896A0F240C40154921
:10041000095D94021A40240F134D2C5D9A4202D0BC
:1004200033049A4200E00E4800F0C8FC4443094BF4
:1004300018680006000F0D49085CC4400E480460AF
:100440000320FFF71DFF0026304601B0F0BDC04677
:1004500000200240041002408813000000127A00BD
:10046000006CDC02D20F0008C20F0008B20F0008B7
:10047000014800687047C04608000020F0B587B00A
:1004800004460120002C00D145E204902078C007EA
:10049000F94E05940CD071680C200140042900D05D
:1004A00090E03068800303D56068002800D120E127
:1004B0002078800721D570680007800F0ED0706803
:1004C0000C210140082900D09DE00320C003716881
:1004D00001400120C003814200D094E030688007D1
:1004E000059C03D5E068012800D002E13068F821BE
:1004F00088432169C90001433160059C20780007C9
:1005000024D42078400737D42078C00600D4D3E024
:1005100005984069411D00D1C2E0012800D030E1BA
:10052000706B042101437163706B0121014371639E
:10053000FFF798FE0546706B800700D5B4E0FFF723
:1005400091FE411B03200229F5D9E4E1706AE169BB
:10055000002900D181E0012108437062FFF782FE8B
:100560000546706A8007CCD4FFF77CFE401B02284A
:10057000F7D9032007B0F0BD012003900107F0690F
:100580000840029006D1F0690843F061F069084024
:10059000069006980191E14F3868C0054AD4039847
:1005A0000402386820433860FFF75CFE054638686F
:1005B00020423FD1FFF756FE401B6428F7D90320A5
:1005C00007B0F0BD71680140082908D10320C003BD
:1005D0007168014001200004814200D161E7616837
:1005E00001204704002900D117E1052900D12BE1A2
:1005F000012900D12CE1010432688A433260810470
:100600003068884327E13068059CE168002936D0CE
:10061000012108433060FFF725FE0546306880075A
:1006200000D563E7FFF71EFE401B0228F6D9032022
:1006300007B0F0BD05988068002800D1B6E0052815
:1006400000D1C9E0012800D1CAE0306A039988438B
:100650003062306A04218843C5E00121884370621A
:10066000FFF700FE0546706A800700D449E7FFF7F0
:10067000F9FD401B0228F6D9032007B0F0BD012187
:1006800088433060FFF7EEFD05463068800700D4F0
:1006900033E7FFF7E7FD411B03200229F5D93AE1D3
:1006A000706B042188437063706BF821884305994F
:1006B0008969C900014371630598007880060BD5EC
:1006C00071680C2001400C2939D1706B800303D56F
:1006D0000598006A01280CD10598446A002C00D1C5
:1006E000E1E070680C210140082905D1012C00D0FF
:1006F000C4E0049807B0F0BD0120020631680492FE
:10070000914331604706FFF7ADFD0546022C0BD142
:10071000049C3068384200D1DEE0FFF7A3FD411BA6
:1007200003200229F5D9F6E03068384200D1BAE05A
:10073000FFF798FD411B03200229F5D9EBE0716812
:100740000140082905D10320C0037168014081429E
:10075000BBD0706B0599096A002900D1A9E001217D
:100760000A04104370634C04FFF77CFD0546706B70
:100770002042B1D1FFF776FD411B03200229F6D9B3
:10078000C9E0706B042101437163706B01218843E0
:100790007063FFF767FD0546706B80078CD5FFF728
:1007A00061FD411B03200229F6D9B4E0306A0399A8
:1007B00088433062306A042188433062584CFFF726
:1007C00051FD0546306A80071DD5FFF74BFD411BE3
:1007D0000320A142F6D99EE0306A04210143316230
:1007E000306A0399084330624D4CFFF73BFD0546E4
:1007F000306A800707D4FFF735FD401BA042F7D9C8
:10080000032007B0F0BD02980028059C00D07BE6CD
:10081000F06901998843F06176E6010432688A4301
:1008200032608004316881433160FFF71BFD05466B
:10083000059C3068384200D13AE6FFF713FD411BB2
:1008400003206429F5D966E0810432680A433260E6
:100850000104306808433060FFF704FD0546306846
:10086000384200D024E6FFF7FDFC401B6428F6D98F
:10087000032007B0F0BDC046001002400320C203B1
:1008800070680240F16A059CA36A9A42049D0DD1EA
:100890000F221140236B994208D191040840E16A6C
:1008A0008842284637D1002007B0F0BD284607B05F
:1008B000F0BD01210A04904370634C04FFF7D2FCA1
:1008C0000546706B204200D106E7FFF7CBFC411BC9
:1008D00003200229F5D91EE0F06A0F218843059A0A
:1008E000116B0143F1627B20C00371688143D06AC0
:1008F0000843916A01437160306820433060FFF71C
:10090000B1FC044630683842CDD1FFF7ABFC011B87
:1009100003200229F6D907B0F0BDC04600700040A0
:1009200088130000401E010E01D0012070470749C6
:10093000074A5060074803680B400321890759188C
:10094000016000209060072111607047FFFFFF00E9
:1009500010E000E020ED00E0FEE7FEE770477047A2
:1009600080B5FFF783FC80BD704700009AB00DADE5
:10097000281D3021FFF73EFC00241694102008901B
:1009800011900126109602270D972846FFF776FD55
:10099000002803D0EFF3108072B6FEE702970496AA
:1009A0000C940B940A940720099009A82146FFF79C
:1009B000A3FC002803D0EFF3108072B6FEE7069484
:1009C000049DE904F44802680A4302602B03F348DB
:1009D000016819430160AF030168394301602A04CB
:1009E000016811430160A90404680C430460446871
:1009F00040260596B4434460446880260796B44375
:100A000044602C464568E64E354045604568E54EF5
:100A10003540456085689D4385608368BB4383603E
:100A20008368019293438360836800918B43836062
:100A300003231D03C668AE43C6609D03C668AE436C
:100A4000C6601D04C668AE43C66006469B04C56802
:100A50009D43C56003682343036003680298034312
:100A60003360F368A343F360F36801468343F360A4
:100A70006002C94A53680390034310465360CA4F4B
:100A80007B68089A13437B607B6808220892934333
:100A90007B6063037D681D437D60E3027D689D4349
:100AA0007D60A3027D689D437D603D6A1D433D627C
:100AB0003B68DB0702D03B680B433B603B68DB07CE
:100AC00008D03B68DB0705D03B68DB0702D03B68FA
:100AD000DB07F3D17B68A3437B60E3073D681D43DD
:100AE0003D603B68002B08D53B68002B05D53B6873
:100AF000002B02D53B68002BF3D43B46083B1D6816
:100B0000ED0702D01D6825431D603D6825433D600B
:100B10001D68ED0708D11D68ED0705D11D68ED07BB
:100B200002D11D68ED07F3D03B68042102910B430D
:100B30003B600F231B0235689D4305235B02EB18C6
:100B40003360336A019A134333622205336A1343D5
:100B50003362826800990A438260FFF789FCE121D1
:100B6000490200F02BF991490A46103A10600846F4
:100B70001C380268089B1A4302600268029B1A43F1
:100B80000260026822430260894804E07069079AA3
:100B9000104370612046874ABC6B0B681B0608D463
:100BA0000B681B0605D40B681B0602D40B681B06DA
:100BB000F3D544238B810B681B0608D40B681B06F6
:100BC00005D40B681B0602D40B681B06F3D56127FE
:100BD0008F810B681B0608D40B681B0605D40B68B5
:100BE0001B0602D40B681B06F3D574238B810B689C
:100BF0001B0608D40B681B0605D40B681B0602D421
:100C00000B681B06F3D58F810B681B0608D40B6895
:100C10001B0605D40B681B0602D40B681B06F3D514
:100C20003A238B810B681B0608D40B681B0605D47E
:100C30000B681B0602D40B681B06F3D520238B819F
:100C40000DAF089423461EB204467043C50F8014AE
:100C50004019534DF73545437519AD182322AA5C49
:100C60003A707F1C09339AB2122A524A0346204630
:100C7000E9D8002E02D52D2038707F1C06983870D8
:100C80007B1E0DA8984220D20DAE187832781A70CB
:100C900030705B1E761C9E4217D2187832781A701C
:100CA0003070761C5B1E9E420FD2187832781A7014
:100CB0003070761C5B1E9E4207D2187832781A700C
:100CC0003070761C5B1E9E42DFD30DA80778002F84
:100CD00015D00DAB05E0F8B28881731C7778002F32
:100CE0000DD01E4608680006F5D408680006F2D448
:100CF00008680006EFD408680006F3D5EBE708683B
:100D0000000608D40868000605D40868000602D466
:100D100008680006F3D50D208881204E224F086810
:100D2000000608D40868000605D40868000602D446
:100D300008680006F3D50A208881089803047569BD
:100D400013200004834217DD0598054375614F2089
:100D50000004834213D9049800027269024372614D
:100D60008B20000483420ED97069039A104370618E
:100D7000114883420BD309E7059885437561706973
:100D8000074A104070617069064A104070617069CE
:100D9000079A9043FDE6C046141002400008004840
:100DA000FFFEFFFFFFFDFFFF082401401C4800403D
:100DB00067660000E20F00080100C70043088B428D
:100DC0001AD3002203098B4279D3030A8B425ED3E4
:100DD000030B8B4242D3030C8B4227D30902FF2221
:100DE00012BA030C8B4202D31212090203D0030B76
:100DF0008B4233D31AE0D3E0411A8041401C704744
:100E000003460B4371D443088B42F5D300220309F8
:100E10008B4254D3030A8B4239D3030B8B421DD32D
:100E2000030C8B4202D394466EE0090AC30B8B423B
:100E300001D3CB03C01A5241830B8B4201D38B03E6
:100E4000C01A5241430B8B4201D34B03C01A52418B
:100E5000030B8B4201D30B03C01A5241C30A8B42CE
:100E600001D3CB02C01A5241830A8B4201D38B02B9
:100E7000C01A5241430A8B4201D34B02C01A52415D
:100E8000030A8B4201D30B02C01A5241CDD2C309CF
:100E90008B4201D3CB01C01A524183098B4201D34B
:100EA0008B01C01A524143098B4201D34B01C01A36
:100EB000524103098B4201D30B01C01A5241C308AE
:100EC0008B4201D3CB00C01A524183088B4201D31D
:100ED0008B00C01A524143088B4201D34B00C01A09
:100EE0005241411A524110007047CA0F00D0494286
:100EF000031000D34042534000229C4603098B421A
:100F00002DD3030A8B4212D38901FC2212BA030AA1
:100F10008B420CD3890192118B4208D38901921123
:100F20008B4204D3890137D0921100E08909C309AB
:100F30008B4201D3CB01C01A524183098B4201D3AA
:100F40008B01C01A524143098B4201D34B01C01A95
:100F5000524103098B4201D30B01C01A5241C3080D
:100F60008B4201D3CB00C01A524183088B4201D37C
:100F70008B00C01A5241D9D243088B4201D34B0097
:100F8000C01A5241411A00D20146524110466346EE
:100F90005B1000D34042704763465B1000D3404271
:100FA00001B50021004201D0C9430846C046C046F1
:100FB00002BD00000000000000000102030406075B
:100FC000080902030405060708090A0B0C0D0E0F99
:100FD00010100102030405060708090A0B0C0D0E88
:100FE0000F107A797877767574737271706F6E6D91
:100FF0006C6B6A6968676665646362613938373645
:101000003534333231303132333435363738396173
:1010100062636465666768696A6B6C6D6E6F707138
:1010200072737475767778797A0000005010000832
:1010300000000020100000001C01000860100008E3
:1010400010000020680600003C01000800000000BD
:10105000010000000400000000127A0000000000FF
:04000005080000C12E
:00000001FF
