:020000040800F2
:100000008006002081010008B3090008B10900083A
:1000100000000000000000000000000000000000E0
:10002000000000000000000000000000B709000808
:100030000000000000000000B5090008B909000830
:100040009301000893010008930100089301000840
:100050009301000893010008930100089301000830
:100060009301000893010008930100089301000820
:100070009301000893010008930100089301000810
:100080009301000893010008930100089301000800
:1000900093010008930100089301000893010008F0
:1000A00093010008930100089301000893010008E0
:1000B00093010008C5090008930100089301000896
:1000C00000F002F800F04CF812A030C808382418EC
:1000D0002D18AC4201D100F043F80FCCA246AB463C
:1000E0000CA730CF2D1B083F3F197C427F1E544484
:1000F0002D090426F441641EAC4201D300F030F80F
:100100000126334200D0FB1A3343984754465D46DC
:10011000DFE70000EC1600000C170000103A02D3D5
:1001200078C878C1FAD8520701D330C830C101D598
:1001300004680C6070470000704700000023002432
:1001400000250026103A01D378C1FBD8520700D30E
:1001500030C100D50B6070471FB51FBD10B510BD75
:1001600000F04DF81146FFF7F7FF01F01FF800F01F
:1001700065F803B4FFF7F2FF03BC00F06BF8000072
:100180000748804707480047FEE7FEE7FEE7FEE72F
:10019000FEE7FEE704480549054A064B70470000A4
:1001A000C1090008C100000880000020800600206E
:1001B000800200208002002001E004C0091F042901
:1001C000FBD28B0701D50280801CC90700D00270CA
:1001D000704700290BD0C30702D00270401C491E93
:1001E000022904D3830702D50280801C891EE3E71D
:1001F0000022EEE70022DFE7704770477047754640
:1002000000F024F8AE46050069465346C008C00019
:10021000854618B020B5FFF7BDFF60BCB646002686
:100220000027C0C5C0C5C0C5C0C5C0C5C0C5C0C504
:10023000C0C5403D490849008D46704710B5044689
:10024000C046C0462046FFF794FF10BD00487047E7
:100250001000002001491820ABBEFEE72600020076
:10026000704742690B4693430A401104C9188161E3
:1002700070470000054800687047C0461A4800787B
:1002800002490A68101808607047C0467C000020C8
:1002900080B58548016810220A430260032000F0FF
:1002A00005F800F023F8002080BDC04670B5044674
:1002B0007D20C0000C4E317801F0BAF80146844828
:1002C000006801F0B5F800F059FB0125032C08D8AF
:1002D000002806D10025E84321462A4600F01CF8F4
:1002E0007460284670BDC0460000002082B00948F6
:1002F00001680122114301600168114001910199D7
:10030000110742680A434260406808400090009824
:1003100002B0704718100240002805D4032203469B
:1003200093430A4A9A1803E00C220240064BD21863
:100330008007C00E8901C9B28140FF238340106845
:10034000984308431060704714ED00E000E400E0BB
:10035000F0B581B0002846D00446534A1368012006
:1003600003408B4208D213680126B3430B4313604A
:10037000126832408A4237D1009121688A074B4B7C
:1003800010D54A0706D5072212021B681343474AB5
:100390001360464B1A68F0239A43A3681343434AF9
:1003A0001360424BC90722D13F49086801263040FB
:1003B000009A904205D90868B04308600868C007F1
:1003C00012D12078400706D5072000021968814322
:1003D000E068084318601A681007810F3548022941
:1003E00012D2044650E00126304601B0F0BD6168EB
:1003F00003290DD01A1F02290FD0012912D112682A
:1004000092030646F0D511E0032926D12A4C3BE0A1
:100410001A6B92030646E7D508E012689201064679
:10042000E2D503E0126892070646DDD51868032678
:10043000B04308431860FFF71DFF07461C4D1B4BD8
:1004400018680C210140606880008142ACD0FFF741
:1004500011FFC01BA842F2D9C6E70321CB03134901
:10046000896A0F240C401549095D94021A40240F33
:10047000134D2C5D9A4202D033049A4200E00E489C
:1004800000F0D6FF4443094B18680006000F0D49E1
:10049000085CC4400E4804600320FFF707FF0026F5
:1004A000304601B0F0BDC0460020024004100240BA
:1004B0008813000000127A00006CDC02EF170008BD
:1004C000DF170008CF170008014800687047C046D2
:1004D00008000020F0B587B004460120002C00D1B0
:1004E00045E204902078C007F94E05940CD071685D
:1004F0000C200140042900D090E03068800303D52F
:100500006068002800D120E12078800721D570683C
:100510000007800F0ED070680C210140082900D020
:100520009DE00320C003716801400120C0038142A7
:1005300000D094E030688007059C03D5E06801286E
:1005400000D002E13068F82188432169C9000143E5
:100550003160059C2078000724D42078400737D4E8
:100560002078C00600D4D3E005984069411D00D131
:10057000C2E0012800D030E1706B042101437163B7
:10058000706B012101437163FFF774FE0546706BC8
:10059000800700D5B4E0FFF76DFE411B0320022960
:1005A000F5D9E4E1706AE169002900D181E0012117
:1005B00008437062FFF75EFE0546706A8007CCD480
:1005C000FFF758FE401B0228F7D9032007B0F0BD03
:1005D000012003900107F0690840029006D1F069FC
:1005E0000843F061F0690840069006980191E14FD8
:1005F0003868C0054AD4039804023868204338603C
:10060000FFF738FE0546386820423FD1FFF732FE3B
:10061000401B6428F7D9032007B0F0BD7168014082
:10062000082908D10320C00371680140012000049B
:10063000814200D161E7616801204704002900D1AF
:1006400017E1052900D12BE1012900D12CE101049A
:1006500032688A43326081043068884327E1306819
:10066000059CE168002936D0012108433060FFF77E
:1006700001FE05463068800700D563E7FFF7FAFD05
:10068000401B0228F6D9032007B0F0BD059880680A
:10069000002800D1B6E0052800D1C9E0012800D12A
:1006A000CAE0306A039988433062306A0421884383
:1006B000C5E0012188437062FFF7DCFD0546706AE2
:1006C000800700D449E7FFF7D5FD401B0228F6D983
:1006D000032007B0F0BD012188433060FFF7CAFD59
:1006E00005463068800700D433E7FFF7C3FD411BA0
:1006F00003200229F5D93AE1706B04218843706325
:10070000706BF821884305998969C90001437163B9
:100710000598007880060BD571680C2001400C29E3
:1007200039D1706B800303D50598006A01280CD17C
:100730000598446A002C00D1E1E070680C2101406A
:10074000082905D1012C00D0C4E0049807B0F0BD01
:100750000120020631680492914331604706FFF799
:1007600089FD0546022C0BD1049C3068384200D12B
:10077000DEE0FFF77FFD411B03200229F5D9F6E0FB
:100780003068384200D1BAE0FFF774FD411B032006
:100790000229F5D9EBE071680140082905D1032051
:1007A000C003716801408142BBD0706B0599096A32
:1007B000002900D1A9E001210A04104370634C0410
:1007C000FFF758FD0546706B2042B1D1FFF752FD8F
:1007D000411B03200229F6D9C9E0706B04210143B3
:1007E0007163706B012188437063FFF743FD054619
:1007F000706B80078CD5FFF73DFD411B032002295C
:10080000F6D9B4E0306A039988433062306A042133
:1008100088433062584CFFF72DFD0546306A80074B
:100820001DD5FFF727FD411B0320A142F6D99EE00D
:10083000306A042101433162306A0399084330620F
:100840004D4CFFF717FD0546306A800707D4FFF7C8
:1008500011FD401BA042F7D9032007B0F0BD02985C
:100860000028059C00D07BE6F06901998843F0617F
:1008700076E6010432688A4332608004316881433D
:100880003160FFF7F7FC0546059C3068384200D11F
:100890003AE6FFF7EFFC411B03206429F5D966E037
:1008A000810432680A4332600104306808433060D2
:1008B000FFF7E0FC05463068384200D024E6FFF739
:1008C000D9FC401B6428F6D9032007B0F0BDC04610
:1008D000001002400320C20370680240F16A059CC8
:1008E000A36A9A42049D0DD10F221140236B9942B5
:1008F00008D191040840E16A8842284637D1002097
:1009000007B0F0BD284607B0F0BD01210A049043AE
:1009100070634C04FFF7AEFC0546706B204200D1BB
:1009200006E7FFF7A7FC411B03200229F5D91EE0CB
:10093000F06A0F218843059A116B0143F1627B2015
:10094000C00371688143D06A0843916A01437160B2
:10095000306820433060FFF78DFC04463068384231
:10096000CDD1FFF787FC011B03200229F6D907B080
:10097000F0BDC0460070004088130000401E010E0C
:1009800001D0012070470749074A506007480368B3
:100990000B4003218907591801600020906007214E
:1009A00011607047FFFFFF0010E000E020ED00E065
:1009B000FEE7FEE77047704780B5FFF75FFC80BD3C
:1009C0007047000014480121416002490988817084
:1009D0007047C0462448004070B50F4841786239DE
:1009E0000024102900D9D2E34900C04679448988FF
:1009F00049008F447300CC03CC03CC03CC03130019
:100A0000CC03CC03CC03CC03CC03CC03CC03CA0073
:100A1000CC03CC030F01C0467000002001783229BE
:100A200000D18CE2312900D1E0E2302956D10124F5
:100A30006002DD490A6882430A6000202023DB4906
:100A4000DB4A05E08B81401D135C322800D19EE318
:100A50000D682D0608D40D682D0605D40D682D06E9
:100A600002D40D682D06F3D58B8183185D780E684E
:100A7000360608D40E68360605D40E68360602D44B
:100A80000E683606F3D58D819D780E68360608D43B
:100A90000E68360605D40E68360602D40E68360691
:100AA000F3D58D81DD780E68360608D40E683606DB
:100AB00005D40E68360602D40E683606F3D58D814D
:100AC0001B790D682D06BDD40D682D06BAD40D68AE
:100AD0002D06B7D40D682D06F3D5B3E7017832297A
:100AE00000D108E1312900D153E130294DD1D94855
:100AF000016880229143016000202023D649D74A13
:100B000002E08B81001D135C0C68240608D40C687D
:100B1000240605D40C68240602D40C682406F3D5F8
:100B20008B81012403462343312B00D12FE3D35C77
:100B30000C68240608D40C68240605D40C68240626
:100B400002D40C682406F3D58B8102230343D35CC3
:100B50000C68240608D40C68240605D40C68240606
:100B600002D40C682406F3D58B8103230343D35CA2
:100B70000C682406C5D40C682406C2D40C6824066C
:100B8000BFD40C682406F3D5BBE70078322800D127
:100B900054E1312800D197E1302800D0F7E2012458
:100BA0002002AC490A6882430A6000202023AA4937
:100BB000AB4A05E08B81C01C135C332800D1E6E210
:100BC0000D682D0608D40D682D0605D40D682D0678
:100BD00002D40D682D06F3D58B8183185D780E68DD
:100BE000360608D40E68360605D40E68360602D4DA
:100BF0000E683606F3D58D819B780D682D06D9D405
:100C00000D682D06D6D40D682D06D3D40D682D069B
:100C1000F3D5CFE70078322800D13EE2312800D169
:100C200088E2302800D0B2E28A480168402291432D
:100C300001600020202388498A4A05E08B81801DBD
:100C4000135C302800D1A2E20C68240608D40C689A
:100C5000240605D40C68240602D40C682406F3D5B7
:100C60008B81012403462343D35C0D682D0608D4F1
:100C70000D682D0605D40D682D0602D40D682D06CD
:100C8000F3D58B8183189D780E68360608D40E68DC
:100C9000360605D40E68360602D40E683606F3D53D
:100CA0008D81DD780E68360608D40E68360605D4C8
:100CB0000E68360602D40E683606F3D58D811D798E
:100CC0000E68360608D40E68360605D40E68360659
:100CD00002D40E683606F3D58D815B790D682D063A
:100CE000ACD40D682D06A9D40D682D06A6D40D68C8
:100CF0002D06F3D5A2E7574814388021FFF7B1FA43
:100D0000002020235449554A02E08B81001D135CCA
:100D10000C68240608D40C68240605D40C68240644
:100D200002D40C682406F3D58B81012403462343A7
:100D3000312B00D12BE2D35C0C68240608D40C685C
:100D4000240605D40C68240602D40C682406F3D5C6
:100D50008B8102230343D35C0C68240608D40C68FF
:100D6000240605D40C68240602D40C682406F3D5A6
:100D70008B8103230343D35C0C682406C5D40C6821
:100D80002406C2D40C682406BFD40C682406F3D50C
:100D9000BBE73048016880220A430260002020231C
:100DA000FD492E4A09E0C046140800481C4800408E
:100DB000B61600088B81001D135C0C68240608D44D
:100DC0000C68240605D40C68240602D40C6824069A
:100DD000F3D58B81012403462343312B00D1D6E187
:100DE000D35C0C68240608D40C68240605D40C686F
:100DF000240602D40C682406F3D58B810223034316
:100E0000D35C0C68240608D40C68240605D40C684E
:100E1000240602D40C682406F3D58B8103230343F4
:100E2000D35C0C682406C5D40C682406C2D40C68B4
:100E30002406BFD40C682406F3D5BBE7D548143884
:100E400001242102FFF70DFA00202023D249D44AC1
:100E500010E0C046140800481C480040EA1600088C
:100E60001D170008261600088B81C01C135C332850
:100E700000D18CE10D682D0608D40D682D0605D42F
:100E80000D682D0602D40D682D06F3D58B818318CD
:100E90005D780E68360608D40E68360605D40E68EE
:100EA000360602D40E683606F3D58D819B780D6820
:100EB0002D06D9D40D682D06D6D40D682D06D3D4B1
:100EC0000D682D06F3D5CFE701242002B1490A6849
:100ED00002430A6000202023AF49B14A05E08B811C
:100EE000C01C135C332800D151E10D682D0608D4D5
:100EF0000D682D0605D40D682D0602D40D682D064B
:100F0000F3D58B8183185D780E68360608D40E6899
:100F1000360605D40E68360602D40E683606F3D5BA
:100F20008D819B780D682D06D9D40D682D06D6D4F9
:100F30000D682D06D3D40D682D06F3D5CFE795485F
:100F4000143801246102FFF78CF900202023E849BE
:100F5000924A05E08B81401D135C322800D116E1D6
:100F60000D682D0608D40D682D0605D40D682D06D4
:100F700002D40D682D06F3D58B8183185D780E6839
:100F8000360608D40E68360605D40E68360602D436
:100F90000E683606F3D58D819D780E68360608D426
:100FA0000E68360605D40E68360602D40E6836067C
:100FB000F3D58D81DD780E68360608D40E683606C6
:100FC00005D40E68360602D40E683606F3D58D8138
:100FD0001B790D682D06BDD40D682D06BAD40D6899
:100FE0002D06B7D40D682D06F3D5B3E701246002B2
:100FF00068490A6802430A6000202023BC49674A06
:1010000005E08B81401D135C322800D1BFE00D68E4
:101010002D0608D40D682D0605D40D682D0602D4C2
:101020000D682D06F3D58B8183185D780E68360622
:1010300008D40E68360605D40E68360602D40E684B
:101040003606F3D58D819D780E68360608D40E6875
:10105000360605D40E68360602D40E683606F3D579
:101060008D81DD780E68360608D40E68360605D404
:101070000E68360602D40E683606F3D58D811B79CC
:101080000D682D06BDD40D682D06BAD40D682D0649
:10109000B7D40D682D06F3D5B3E73E481438402188
:1010A000FFF7DFF80020202391493E4A04E08B81BE
:1010B000001D135C2C286AD00C68240608D40C6828
:1010C000240605D40C68240602D40C682406F3D543
:1010D0008B81012403462343D35C0D682D0608D47D
:1010E0000D682D0605D40D682D0602D40D682D0659
:1010F000F3D58B8102230343D35C0D682D0608D4FE
:101100000D682D0605D40D682D0602D40D682D0638
:10111000F3D58B8103230343D35C0D682D06C6D41E
:101120000D682D06C3D40D682D06C0D40D682D069C
:10113000F3D5BCE71748016840220A43026000204B
:1011400020236B49184A04E08B81801C135C2E28F5
:101150001DD00C68240608D40C68240605D40C683D
:10116000240602D40C682406F3D58B81012403469F
:101170002343D35C0D682D06E6D40D682D06E3D419
:101180000D682D06E0D40D682D06F3D5DCE720466A
:1011900070BDC046140800481C480040B616000840
:1011A0001D170008881600085816000800F0A8F857
:1011B0004F4C504F504E01E0B160706038680128CC
:1011C00045D12068000608D42068000605D42068B0
:1011D000000602D420680006F3D54320A0812068D1
:1011E000000608D42068000605D42068000602D452
:1011F00020680006F3D54D20A0812068000608D4A1
:101200002068000605D42068000602D42068000685
:10121000F3D54420A0812068000608D42068000689
:1012200005D42068000602D420680006F3D53E20CD
:10123000A0812068000608D42068000605D4206834
:10124000000602D420680006F3D52020A0810025E6
:101250003D6070680028B1D0B06800281AD0B0682E
:10126000012827D12089307030782168090608D4F8
:101270002168090605D42168090602D421680906F7
:10128000F3D5A081FFF7A8FB00281C4B1BD0012041
:1012900038600FE02089707070782168090608D4E2
:1012A0002168090605D42168090602D421680906C7
:1012B000F3D5A081B16800200029014600D07BE76A
:1012C000B168491C78E7202004E0A0816D1C585DBE
:1012D0000028DCD021680906F7D421680906F4D477
:1012E00021680906F1D421680906F3D5EDE7C04667
:1012F0001C4800400C00002070000020521700081D
:10130000F0B591B0FEF7C4FF04AD281D3021FEF703
:1013100071FF00240D9410200890012607960220EA
:1013200004902846FFF7D6F8002803D0EFF310808A
:1013300072B6FEE703940294019407200090684679
:101340002146FFF705F8002803D0EFF3108072B6AE
:10135000FEE7B404314DA8682043A8602868204304
:1013600028600F2001052E480246243A13688B435B
:101370000521490559181160B10202680A4302604B
:10138000B703016839430160FFF79EF8E121490284
:1013900000F04EF82349C8602D20086070072249EC
:1013A0000860F00429680143296031031F4802687E
:1013B0000A430260016839430160310402680A434C
:1013C00002600168214301604168416041684160F9
:1013D00041684160416841608168816081688160E5
:1013E0008168816081688160C168C160C168C160D5
:1013F000C168C160C168C1604169402291434161D7
:101400004169802291434161310242698A434261CC
:10141000710242698A43426111B0F0BD141002406A
:10142000240400480048004000E100E000080048B3
:1014300043088B421AD3002203098B4279D3030A53
:101440008B425ED3030B8B4242D3030C8B4227D3D8
:101450000902FF2212BA030C8B4202D312120902B4
:1014600003D0030B8B4233D31AE0D3E0411A8041FF
:10147000401C704703460B4371D443088B42F5D39D
:10148000002203098B4254D3030A8B4239D3030B46
:101490008B421DD3030C8B4202D394466EE0090AA3
:1014A000C30B8B4201D3CB03C01A5241830B8B4237
:1014B00001D38B03C01A5241430B8B4201D34B0320
:1014C000C01A5241030B8B4201D30B03C01A524185
:1014D000C30A8B4201D3CB02C01A5241830A8B420A
:1014E00001D38B02C01A5241430A8B4201D34B02F3
:1014F000C01A5241030A8B4201D30B02C01A524157
:10150000CDD2C3098B4201D3CB01C01A524183090A
:101510008B4201D38B01C01A524143098B4201D344
:101520004B01C01A524103098B4201D30B01C01A6F
:101530005241C3088B4201D3CB00C01A52418308E9
:101540008B4201D38B00C01A524143088B4201D316
:101550004B00C01A5241411A524110007047CA0F45
:1015600000D04942031000D34042534000229C4621
:1015700003098B422DD3030A8B4212D38901FC222B
:1015800012BA030A8B420CD3890192118B4208D301
:10159000890192118B4204D3890137D0921100E066
:1015A0008909C3098B4201D3CB01C01A5241830977
:1015B0008B4201D38B01C01A524143098B4201D3A4
:1015C0004B01C01A524103098B4201D30B01C01ACF
:1015D0005241C3088B4201D3CB00C01A5241830849
:1015E0008B4201D38B00C01A5241D9D243088B429F
:1015F00001D34B00C01A5241411A00D20146524158
:10160000104663465B1000D34042704763465B1050
:1016100000D3404201B50021004201D0C943084631
:10162000C046C04602BD20436F727265637420637A
:101630006F6D6D616E642070726F76696465642C85
:10164000207368757474696E67206F6666207265B2
:1016500064204C454420000020436F72726563741F
:1016600020636F6D6D616E642070726F7669646562
:10167000642C207475726E696E67206F6E207265BF
:1016800064204C454420000020436F7272656374EF
:1016900020636F6D6D616E642070726F7669646532
:1016A000642C20746F67676C696E67205245442014
:1016B0006C656420000020436F7272656374206360
:1016C0006F6D6D616E642070726F76696465642CF5
:1016D000207368757474696E67206F666620677220
:1016E00065656E204C454420000020436F72726592
:1016F000637420636F6D6D616E642070726F7669C4
:101700006465642C207368757474696E67206F66F5
:101710006620626C7565204C454420000020436FB4
:10172000727265637420636F6D6D616E6420707298
:101730006F76696465642C207368757474696E676C
:10174000206F6666206F72616E6765204C4544208D
:10175000000020446F6573206E6F7420636F727297
:101760006573706F6E6420746F206120636F6D6DA0
:10177000616E642E2020456E746572206F6E652048
:101780006F662074686520666F6C6C6F77696E6732
:101790003A20277230272C277231272C27723227C4
:1017A0002C276730272C276731272C276732272CD7
:1017B000276230272C276231272C276232272C27DB
:1017C0006F30272C276F31272C276F32270000001E
:1017D00000000000000000010203040607080902DF
:1017E000030405060708090A0B0C0D0E0F10100163
:1017F00002030405060708090A0B0C0D0E0F100062
:101800002018000800000020100000001C01000843
:101810003018000810000020700600003C0100088D
:10182000010000000400000000127A000100000026
:04000005080000C12E
:00000001FF
