:020000040800F2
:100000008006002081010008B3090008B10900083A
:1000100000000000000000000000000000000000E0
:10002000000000000000000000000000B709000808
:100030000000000000000000B5090008B909000830
:100040009301000893010008930100089301000840
:100050009301000893010008930100089301000830
:100060009301000893010008930100089301000820
:100070009301000893010008930100089301000810
:100080009301000893010008930100089301000800
:1000900093010008930100089301000893010008F0
:1000A00093010008930100089301000893010008E0
:1000B00093010008C5090008930100089301000896
:1000C00000F002F800F04CF812A030C808382418EC
:1000D0002D18AC4201D100F043F80FCCA246AB463C
:1000E0000CA730CF2D1B083F3F197C427F1E544484
:1000F0002D090426F441641EAC4201D300F030F80F
:100100000126334200D0FB1A3343984754465D46DC
:10011000DFE700006411000084110000103A02D3F0
:1001200078C878C1FAD8520701D330C830C101D598
:1001300004680C6070470000704700000023002432
:1001400000250026103A01D378C1FBD8520700D30E
:1001500030C100D50B6070471FB51FBD10B510BD75
:1001600000F04DF81146FFF7F7FF00F0B5FC00F086
:1001700065F803B4FFF7F2FF03BC00F06BF8000072
:100180000748804707480047FEE7FEE7FEE7FEE72F
:10019000FEE7FEE704480549054A064B70470000A4
:1001A000C1090008C100000880000020800600206E
:1001B000800200208002002001E004C0091F042901
:1001C000FBD28B0701D50280801CC90700D00270CA
:1001D000704700290BD0C30702D00270401C491E93
:1001E000022904D3830702D50280801C891EE3E71D
:1001F0000022EEE70022DFE7704770477047754640
:1002000000F024F8AE46050069465346C008C00019
:10021000854618B020B5FFF7BDFF60BCB646002686
:100220000027C0C5C0C5C0C5C0C5C0C5C0C5C0C504
:10023000C0C5403D490849008D46704710B5044689
:10024000C046C0462046FFF794FF10BD00487047E7
:100250001000002001491820ABBEFEE72600020076
:10026000704742690B4693430A401104C9188161E3
:1002700070470000054800687047C0461A4800787B
:1002800002490A68101808607047C0467C000020C8
:1002900080B58548016810220A430260032000F0FF
:1002A00005F800F023F8002080BDC04670B5044674
:1002B0007D20C0000C4E317800F08CFE0146844851
:1002C000006800F087FE00F059FB0125032C08D8D8
:1002D000002806D10025E84321462A4600F01CF8F4
:1002E0007460284670BDC0460000002082B00948F6
:1002F00001680122114301600168114001910199D7
:10030000110742680A434260406808400090009824
:1003100002B0704718100240002805D4032203469B
:1003200093430A4A9A1803E00C220240064BD21863
:100330008007C00E8901C9B28140FF238340106845
:10034000984308431060704714ED00E000E400E0BB
:10035000F0B581B0002846D00446534A1368012006
:1003600003408B4208D213680126B3430B4313604A
:10037000126832408A4237D1009121688A074B4B7C
:1003800010D54A0706D5072212021B681343474AB5
:100390001360464B1A68F0239A43A3681343434AF9
:1003A0001360424BC90722D13F49086801263040FB
:1003B000009A904205D90868B04308600868C007F1
:1003C00012D12078400706D5072000021968814322
:1003D000E068084318601A681007810F3548022941
:1003E00012D2044650E00126304601B0F0BD6168EB
:1003F00003290DD01A1F02290FD0012912D112682A
:1004000092030646F0D511E0032926D12A4C3BE0A1
:100410001A6B92030646E7D508E012689201064679
:10042000E2D503E0126892070646DDD51868032678
:10043000B04308431860FFF71DFF07461C4D1B4BD8
:1004400018680C210140606880008142ACD0FFF741
:1004500011FFC01BA842F2D9C6E70321CB03134901
:10046000896A0F240C401549095D94021A40240F33
:10047000134D2C5D9A4202D033049A4200E00E489C
:1004800000F0A8FD4443094B18680006000F0D4911
:10049000085CC4400E4804600320FFF707FF0026F5
:1004A000304601B0F0BDC0460020024004100240BA
:1004B0008813000000127A00006CDC02661200084B
:1004C0005612000846120008014800687047C046EE
:1004D00008000020F0B587B004460120002C00D1B0
:1004E00045E204902078C007F94E05940CD071685D
:1004F0000C200140042900D090E03068800303D52F
:100500006068002800D120E12078800721D570683C
:100510000007800F0ED070680C210140082900D020
:100520009DE00320C003716801400120C0038142A7
:1005300000D094E030688007059C03D5E06801286E
:1005400000D002E13068F82188432169C9000143E5
:100550003160059C2078000724D42078400737D4E8
:100560002078C00600D4D3E005984069411D00D131
:10057000C2E0012800D030E1706B042101437163B7
:10058000706B012101437163FFF774FE0546706BC8
:10059000800700D5B4E0FFF76DFE411B0320022960
:1005A000F5D9E4E1706AE169002900D181E0012117
:1005B00008437062FFF75EFE0546706A8007CCD480
:1005C000FFF758FE401B0228F7D9032007B0F0BD03
:1005D000012003900107F0690840029006D1F069FC
:1005E0000843F061F0690840069006980191E14FD8
:1005F0003868C0054AD4039804023868204338603C
:10060000FFF738FE0546386820423FD1FFF732FE3B
:10061000401B6428F7D9032007B0F0BD7168014082
:10062000082908D10320C00371680140012000049B
:10063000814200D161E7616801204704002900D1AF
:1006400017E1052900D12BE1012900D12CE101049A
:1006500032688A43326081043068884327E1306819
:10066000059CE168002936D0012108433060FFF77E
:1006700001FE05463068800700D563E7FFF7FAFD05
:10068000401B0228F6D9032007B0F0BD059880680A
:10069000002800D1B6E0052800D1C9E0012800D12A
:1006A000CAE0306A039988433062306A0421884383
:1006B000C5E0012188437062FFF7DCFD0546706AE2
:1006C000800700D449E7FFF7D5FD401B0228F6D983
:1006D000032007B0F0BD012188433060FFF7CAFD59
:1006E00005463068800700D433E7FFF7C3FD411BA0
:1006F00003200229F5D93AE1706B04218843706325
:10070000706BF821884305998969C90001437163B9
:100710000598007880060BD571680C2001400C29E3
:1007200039D1706B800303D50598006A01280CD17C
:100730000598446A002C00D1E1E070680C2101406A
:10074000082905D1012C00D0C4E0049807B0F0BD01
:100750000120020631680492914331604706FFF799
:1007600089FD0546022C0BD1049C3068384200D12B
:10077000DEE0FFF77FFD411B03200229F5D9F6E0FB
:100780003068384200D1BAE0FFF774FD411B032006
:100790000229F5D9EBE071680140082905D1032051
:1007A000C003716801408142BBD0706B0599096A32
:1007B000002900D1A9E001210A04104370634C0410
:1007C000FFF758FD0546706B2042B1D1FFF752FD8F
:1007D000411B03200229F6D9C9E0706B04210143B3
:1007E0007163706B012188437063FFF743FD054619
:1007F000706B80078CD5FFF73DFD411B032002295C
:10080000F6D9B4E0306A039988433062306A042133
:1008100088433062584CFFF72DFD0546306A80074B
:100820001DD5FFF727FD411B0320A142F6D99EE00D
:10083000306A042101433162306A0399084330620F
:100840004D4CFFF717FD0546306A800707D4FFF7C8
:1008500011FD401BA042F7D9032007B0F0BD02985C
:100860000028059C00D07BE6F06901998843F0617F
:1008700076E6010432688A4332608004316881433D
:100880003160FFF7F7FC0546059C3068384200D11F
:100890003AE6FFF7EFFC411B03206429F5D966E037
:1008A000810432680A4332600104306808433060D2
:1008B000FFF7E0FC05463068384200D024E6FFF739
:1008C000D9FC401B6428F6D9032007B0F0BDC04610
:1008D000001002400320C20370680240F16A059CC8
:1008E000A36A9A42049D0DD10F221140236B9942B5
:1008F00008D191040840E16A8842284637D1002097
:1009000007B0F0BD284607B0F0BD01210A049043AE
:1009100070634C04FFF7AEFC0546706B204200D1BB
:1009200006E7FFF7A7FC411B03200229F5D91EE0CB
:10093000F06A0F218843059A116B0143F1627B2015
:10094000C00371688143D06A0843916A01437160B2
:10095000306820433060FFF78DFC04463068384231
:10096000CDD1FFF787FC011B03200229F6D907B080
:10097000F0BDC0460070004088130000401E010E0C
:1009800001D0012070470749074A506007480368B3
:100990000B4003218907591801600020906007214E
:1009A00011607047FFFFFF0010E000E020ED00E065
:1009B000FEE7FEE77047704780B5FFF75FFC80BD3C
:1009C0007047000070480121416002490988817028
:1009D0007047C0462448004010B56B4841786239E2
:1009E000002410295ED8C0467944097949008F4413
:1009F0001259595959085959595959595920595938
:100A00002F000178322947D031294DD0302902D129
:100A10000124600216E00178322927D031292CD038
:100A2000302906D12B4801688022914301600120C2
:100A300010BD0078322827D031282AD0302831D173
:100A40000124200223490A6882430A60204610BD1F
:100A50000078322830D0312835D0302822D11D48B6
:100A60000168402291430160012010BD19481438EB
:100A70008021FFF7F6FB012010BD16480168802297
:100A80000A430260012010BD1248143801242102DB
:100A900006E00124200209E00E4814380124610216
:100AA000FFF7DFFB204610BD0124600209490A68F8
:100AB00002430A60204610BD064814384021FFF763
:100AC000D0FB012010BD0348016840220A430260A8
:100AD000012010BD1408004800F0E4F9EE4CEF4D81
:100AE000EC4E2868012845D12068000608D420680B
:100AF000000605D42068000602D420680006F3D55D
:100B00004320A0812068000608D42068000605D490
:100B10002068000602D420680006F3D54D20A0818D
:100B20002068000608D42068000605D42068000666
:100B300002D420680006F3D54420A0812068000676
:100B400008D42068000605D42068000602D4206876
:100B50000006F3D53E20A0812068000608D4206856
:100B6000000605D42068000602D420680006F3D5EC
:100B70002020A08100272F6070680028B1D000F0ED
:100B800005F87760ADE7C04670000020F0B581B091
:100B9000C04CA068002800D148E1A068012800D01E
:100BA00055E1BD4D2889207020782968090608D4B0
:100BB0002968090605D42968090602D429680906A6
:100BC000F3D5A881FFF708FF002800D14BE1286882
:100BD000000608D42868000605D42868000602D458
:100BE00028680006F3D54320A8812868000608D4A9
:100BF0002868000605D42868000602D42868000684
:100C0000F3D56F21A9812868000608D4286800065A
:100C100005D42868000602D428680006F3D572239C
:100C2000AB812868000608D42868000605D4286827
:100C3000000602D428680006F3D5AB8128680006B8
:100C400008D42868000605D42868000602D428685D
:100C50000006F3D56520A8812A68120608D42A6800
:100C6000120605D42A68120602D42A681206F3D5A1
:100C70006322AA812A68120608D42A68120605D4BB
:100C80002A68120602D42A681206F3D57422AA81B1
:100C90002A68120608D42A68120605D42A681206A1
:100CA00002D42A681206F3D52022AA812E683606BD
:100CB00008D42E68360605D42E68360602D42E686F
:100CC0003606F3D56926AE812F683F0608D42F6813
:100CD0003F0605D42F683F0602D42F683F06F3D5A0
:100CE0006E27AF812F683F0608D42F683F0605D4D2
:100CF0002F683F0602D42F683F06F3D56627AF81E1
:100D00002F683F0608D42F683F0605D42F683F069A
:100D100002D42F683F06F3D5A9812F683F0608D477
:100D20002F683F0605D42F683F0602D42F683F0680
:100D3000F3D5AA812F683F0608D42F683F0605D453
:100D40002F683F0602D42F683F06F3D57027AF8186
:100D50002F683F0608D42F683F0605D42F683F064A
:100D600002D42F683F06F3D5AB812B681B0608D44D
:100D70002B681B0605D42B681B0602D42B681B06A8
:100D8000F3D5A9812968090608D42968090605D47C
:100D90002968090602D429680906F3D57621A981B4
:100DA0002968090608D42968090605D429680906AE
:100DB00002D429680906F3D5AE812968090608D44A
:100DC0002968090605D42968090602D42968090694
:100DD000F3D56421A9812B681B0608D42B681B0658
:100DE00005D42B681B0602D42B681B06F3D5A881FB
:100DF0002868000608D42868000605D4286800067C
:100E000002D428680006F3D5A9812868000608D412
:100E10002868000605D42868000602D42868000661
:100E2000F3D5AA811D480121016010E01A4801890B
:100E3000617061780268120608D40268120605D44F
:100E40000268120602D402681206F3D58181A068F6
:100E5000002803D00020A06001B0F0BDA068401CB5
:100E6000A06001B0F0BD002044220D4904E0AA8139
:100E7000401C0A5C002AEAD02B681B06F7D42B68BA
:100E80001B06F4D42B681B06F1D42B681B06F3D584
:100E9000EDE7C046700000201C4800400C00002018
:100EA000CA110008F0B591B0FFF7F2F904AD281DA2
:100EB0003021FFF79FF900240D941020089001269F
:100EC0000796022004902846FFF704FB002803D071
:100ED000EFF3108072B6FEE70394029401940720AA
:100EE000009068462146FFF733FA002803D0EFF35D
:100EF000108072B6FEE7B404314DA8682043A860A4
:100F00002868204328600F2001052E480246243A15
:100F100013688B430521490559181160B102026815
:100F20000A430260B703016839430160FFF7CCFA56
:100F3000E121490200F04EF82349C8602D200860E5
:100F4000700722490860F0042968014329603103D1
:100F50001F4802680A430260016839430160310496
:100F600002680A43026001682143016041684160F0
:100F700041684160416841604168416081688160C9
:100F8000816881608168816081688160C168C160B9
:100F9000C168C160C168C160C168C1604169402267
:100FA000914341614169802291434161310242692B
:100FB0008A434261710242698A43426111B0F0BDC5
:100FC00014100240240400480048004000E100E002
:100FD0000008004843088B421AD3002203098B42C1
:100FE00079D3030A8B425ED3030B8B4242D3030CAB
:100FF0008B4227D30902FF2212BA030C8B4202D381
:101000001212090203D0030B8B4233D31AE0D3E050
:10101000411A8041401C704703460B4371D443087A
:101020008B42F5D3002203098B4254D3030A8B422F
:1010300039D3030B8B421DD3030C8B4202D394464E
:101040006EE0090AC30B8B4201D3CB03C01A524195
:10105000830B8B4201D38B03C01A5241430B8B424B
:1010600001D34B03C01A5241030B8B4201D30B0334
:10107000C01A5241C30A8B4201D3CB02C01A52415B
:10108000830A8B4201D38B02C01A5241430A8B421E
:1010900001D34B02C01A5241030A8B4201D30B0207
:1010A000C01A5241CDD2C3098B4201D3CB01C01A21
:1010B000524183098B4201D38B01C01A524143092B
:1010C0008B4201D34B01C01A524103098B4201D319
:1010D0000B01C01A5241C3088B4201D3CB00C01A86
:1010E000524183088B4201D38B00C01A52414308FE
:1010F0008B4201D34B00C01A5241411A5241100099
:101100007047CA0F00D04942031000D340425340F9
:1011100000229C4603098B422DD3030A8B4212D333
:101120008901FC2212BA030A8B420CD38901921165
:101130008B4208D3890192118B4204D3890137D0A5
:10114000921100E08909C3098B4201D3CB01C01A77
:10115000524183098B4201D38B01C01A524143098A
:101160008B4201D34B01C01A524103098B4201D378
:101170000B01C01A5241C3088B4201D3CB00C01AE5
:10118000524183088B4201D38B00C01A5241D9D2FD
:1011900043088B4201D34B00C01A5241411A00D27E
:1011A00001465241104663465B1000D340427047EF
:1011B00063465B1000D3404201B50021004201D0DC
:1011C000C9430846C046C04602BD446F6573206EE1
:1011D0006F7420636F72726573706F6E6420746FCA
:1011E000206120636F6D6D616E642E2020456E74EA
:1011F0006572206F6E65206F662074686520666F6B
:101200006C6C6F77696E673A20277230272C2772D3
:1012100031272C277232272C276730272C2767315C
:10122000272C276732272C276230272C276231276B
:101230002C276232272C276F30272C276F31272C41
:10124000276F3227000000000000000000000102AC
:1012500003040607080902030405060708090A0B28
:101260000C0D0E0F10100102030405060708090AF1
:101270000B0C0D0E0F10000098120008000000204B
:10128000100000001C010008A81200081000002037
:10129000700600003C01000801000000040000008E
:0812A00000127A0001000000B9
:04000005080000C12E
:00000001FF
